:020000040800F2
:1000000000000824790F0008130E0008190E0008DC
:100010001F0E0008250E00082B0E0008000000002F
:10002000000000000000000000000000310E000889
:100030003F0E0008000000004D0E00085B0E000897
:10004000C90F0008C90F0008C90F0008C90F000830
:10005000C90F0008C90F0008C90F0008C90F000820
:10006000C90F0008C90F0008C90F0008C90F000810
:10007000C90F0008C90F0008C90F0008C90F000800
:10008000C90F0008C90F0008C90F0008C90F0008F0
:10009000C90F0008C90F0008C90F0008C90F0008E0
:1000A000C90F0008C90F0008C90F0008C90F0008D0
:1000B000C90F0008C90F0008C90F0008C90F0008C0
:1000C000C90F0008C90F0008C90F0008C90F0008B0
:1000D000C90F0008C90F0008C90F0008C90F0008A0
:1000E000C90F0008C90F000800000000C90F000870
:1000F000C90F0008C90F0008C90F0008C90F000880
:10010000C90F0008C90F0008C90F0008C90F00086F
:10011000C90F0008C90F0008C90F0008C90F00085F
:10012000C90F0008C90F0008C90F0008C90F00084F
:10013000C90F0008C90F0008C90F0008C90F00083F
:1001400000000000000000000000000000000000AF
:10015000C90F0008C90F0008C90F0008C90F00081F
:10016000C90F0008C90F0008C90F0008C90F00080F
:10017000C90F0008C90F0008C90F000800000000DF
:10018000C90F0008C90F0008C90F0008C90F0008EF
:10019000C90F0008C90F0008C90F0008C90F0008DF
:1001A000C90F0008C90F0008C90F0008C90F0008CF
:1001B000C90F0008C90F0008C90F0008C90F0008BF
:1001C000C90F0008C90F0008C90F0008C90F0008AF
:1001D000C90F0008C90F0008C90F0008C90F00089F
:1001E000C90F0008C90F0008C90F0008C90F00088F
:1001F000C90F0008C90F0008C90F0008C90F00087F
:10020000C90F0008C90F0008C90F0008C90F00086E
:10021000C90F0008C90F0008C90F0008C90F00085E
:10022000C90F0008C90F0008C90F0008000000002E
:10023000C90F0008C90F000800000000C90F00081E
:10024000C90F0008C90F0008C90F0008C90F00082E
:10025000C90F0008C90F0008C90F0008C90F00081E
:10026000C90F0008C90F0008C90F0008C90F00080E
:10027000C90F0008C90F0008C90F000800000000DE
:10028000C90F0008C90F0008C90F000800000000CE
:0802900000000000C90F000886
:100298000348044B834202D0034B03B1184770470D
:1002A8000C0000240C00002400000000054806494A
:1002B8000B1AD90F01EBA301491002D0034B03B16C
:1002C800184770470C0000240C00002400000000B0
:1002D80010B5064C237843B9FFF7DAFF044B13B186
:1002E8000448AFF300800123237010BD0C000024E4
:1002F80000000000F40F000808B5044B1BB10449C6
:100308000448AFF30080BDE80840CFE700000000D4
:1003180010000024F40F000870B50D4E0D4D761B2B
:10032800B61006D0002455F8043B01349847A6427D
:10033800F9D1094E094D761B00F058FEB61006D0CB
:10034800002455F8043B01349847A642F9D170BD02
:100358000C1100080C110008141100080C110008F9
:10036800830730B548D0541E002A3FD0CAB203468E
:1003780001E0013C3AD303F8012B9D07F9D1032C86
:100388002DD9CDB245EA05250F2C45EA054536D9C4
:10039800A4F1100222F00F0C03F1200EE6444FEAFC
:1003A800121C03F1100242E9045542E902551032C9
:1003B8007245F8D10CF1010214F00C0F03EB021294
:1003C80004F00F0C13D0ACF1040323F0030304333F
:1003D800134442F8045B9342FBD10CF003042CB1A4
:1003E800CAB21C4403F8012B9C42FBD130BD6446C1
:1003F8001346002CF4D1F9E703461446BFE71A4622
:10040800A446E0E780B483B000AF78607B68184604
:100418000C37BD465DF8047B704780B483B000AFED
:1004280078607B6818460C37BD465DF8047B7047DA
:1004380080B48DB000AFF860B9607A603B6001238A
:10044800FB62FB6B1B683B62FB6B5B68FB61002319
:10045800BB6100237B610023BB620023BB62BB6BD3
:100468009B08BA6A9A4230D2BB6A9B007B617B695F
:1004780001333A6813441B781B027A6939680A44C5
:1004880012781343BB6100237B627A6AFB699A4244
:100498000FDAFB6ABA6902FB03F33A6A93FBF2F2DA
:1004A800396A01FB02F29B1AFB627B6A01337B62A9
:1004B800EBE7BA68BB6A1344FA6AD2B21A7001232E
:1004C800FB62BB6A0133BB62C9E7BA6A7B681A6020
:1004D80000BF3437BD465DF8047B704780B582B0F5
:1004E80000AF786039607B68012B07D13B684FF615
:1004F800FF72934202D10948FFF784FF7B68002B03
:1005080007D13B684FF6FF72934202D10348FFF7C9
:1005180084FF00BF0837BD4680BD00BF2800002407
:1005280080B500AF4FF6FF710120FFF7D7FF80BD00
:1005380080B500AF4FF6FF710020FFF7CFFF80BDF9
:1005480080B4CFB000AF07F59C73A3F59A73186019
:1005580007F59C73A3F59C7319600023C7F8143141
:100568000023C7F81031D7F814310F2B40D807F5FE
:100578009C73A3F59C731A68D7F8103113441B7841
:100588001A06D7F81031013307F59C71A1F59C7153
:1005980009680B441B781B041A43D7F8103102333F
:1005A80007F59C71A1F59C7109680B441B781B0227
:1005B8001343D7F81021033207F59C71A1F59C71FC
:1005C80009680A44127843EA020107F59C73A3F507
:1005D8009873D7F8142143F82210D7F8143101334F
:1005E800C7F81431D7F810310433C7F81031BAE717
:1005F800D7F814313F2B6AD8D7F814319A1E07F56B
:100608009C73A3F5987353F822304FEA7342D7F8D6
:100618001431991E07F59C73A3F5987353F821308C
:100628004FEAF3435A40D7F81431991E07F59C73E3
:10063800A3F5987353F821309B0A5A40D7F8143120
:10064800D91F07F59C73A3F5987353F821301A4402
:10065800D7F81431A3F10F0107F59C73A3F598732C
:1006680053F821304FEAF311D7F81431A3F10F00F2
:1006780007F59C73A3F5987353F820304FEAB343FA
:100688005940D7F81431A3F10F0007F59C73A3F56F
:10069800987353F82030DB084B401A44D7F81431CC
:1006A800A3F1100107F59C73A3F5987353F8213053
:1006B800D11807F59C73A3F59873D7F8142143F85C
:1006C8002210D7F814310133C7F8143190E707F531
:1006D8009C73A3F59A731B681B6DC7F8343107F533
:1006E8009C73A3F59A731B685B6DC7F8303107F5E7
:1006F8009C73A3F59A731B689B6DC7F82C3107F59B
:100708009C73A3F59A731B68DB6DC7F8283107F54E
:100718009C73A3F59A731B681B6EC7F8243107F501
:100728009C73A3F59A731B685B6EC7F8203107F5B5
:100738009C73A3F59A731B689B6EC7F81C3107F569
:100748009C73A3F59A731B68DB6EC7F818310023F6
:10075800C7F81431D7F814313F2B79D8D7F824319A
:100768004FEAB312D7F824314FEAF3235A40D7F8A7
:1007780024314FEA73635A40D7F818311A44D7F82E
:100788002411D7F820311940D7F82431D843D7F8A5
:100798001C3103404B401A446D49D7F8143151F8C5
:1007A80023301A4407F59C73A3F59873D7F81411EE
:1007B80053F821301344C7F80C31D7F834314FEAD5
:1007C800B302D7F834314FEA73335A40D7F834318B
:1007D8004FEAB3535A40D7F83011D7F82C31594063
:1007E800D7F834311940D7F83001D7F82C31034005
:1007F8004B401344C7F80831D7F81C31C7F81831F3
:10080800D7F82031C7F81C31D7F82431C7F8203180
:10081800D7F82821D7F80C311344C7F82431D7F872
:100828002C31C7F82831D7F83031C7F82C31D7F830
:100838003431C7F83031D7F80C21D7F808311344D0
:10084800C7F83431D7F814310133C7F8143181E7C8
:1008580007F59C73A3F59A731B681A6DD7F83431A2
:100868001A4407F59C73A3F59A731B681A6507F574
:100878009C73A3F59A731B685A6DD7F830311A44E4
:1008880007F59C73A3F59A731B685A6507F59C7363
:10089800A3F59A731B689A6DD7F82C311A4407F59B
:1008A8009C73A3F59A731B689A6507F59C73A3F567
:1008B8009A731B68DA6DD7F828311A4407F59C73C8
:1008C800A3F59A731B68DA6507F59C73A3F59A7309
:1008D8001B681A6ED7F824311A4407F59C73A3F5E0
:1008E8009A731B681A6607F59C73A3F59A731B68BD
:1008F8005A6ED7F820311A4407F59C73A3F59A73FA
:100908001B685A6607F59C73A3F59A731B689A6E61
:10091800D7F81C311A4407F59C73A3F59A731B6822
:100928009A6607F59C73A3F59A731B68DA6ED7F875
:1009380018311A4407F59C73A3F59A731B68DA6695
:1009480000BF07F59E77BD465DF8047B704700BF82
:100958000C10000880B483B000AF78607B68002278
:100968001A6479684FF000024FF00003C1E91223BE
:100978007B680E4A1A657B680D4A5A657B680D4A82
:100988009A657B680C4ADA657B680C4A1A667B684C
:100998000B4A5A667B680B4A9A667B680A4ADA668B
:1009A80000BF0C37BD465DF8047B704767E6096AEF
:1009B80085AE67BB72F36E3C3AF54FA57F520E5178
:1009C8008C68059BABD9831F19CDE05BB0B586B0A9
:1009D80000AFF860B9607A6000237B617A697B6850
:1009E8009A4226D2BA687B691A44FB681B6C117854
:1009F800FA68D154FB681B6C5A1CFB681A64FB68C4
:100A08001B6C402B11D1FB681946F868FFF798FD5D
:100A1800FB68D3E9122312F5007443F10005FB6863
:100A2800C3E91245FB6800221A647B6901337B61C4
:100A3800D4E700BF1837BD46B0BD2DE9B04384B038
:100A480000AF786039607B681B6CFB607B681B6C4F
:100A5800372B0FD8FB685A1CFA607A688021D1546A
:100A6800FB68372B21D8FB685A1CFA607A6800218A
:100A7800D154F5E7FB685A1CFA607A688021D15492
:100A8800FB683F2B06D8FB685A1CFA607A6800217D
:100A9800D154F5E77B6819467868FFF751FD7B6804
:100AA800382200211846FFF75BFC7B68D3E9122344
:100AB8007968096CC90000200C46054612EB040849
:100AC80043EB05097B68C3E912897B68D3E91223E4
:100AD800D2B27B6883F83F207B68D3E912014FF0DC
:100AE80000024FF00003020A42EA01620B0AD2B286
:100AF8007B6883F83E207B68D3E912014FF000023F
:100B08004FF00003020C42EA01420B0CD2B27B68A0
:100B180083F83D207B68D3E912014FF000024FF0C3
:100B28000003020E42EA01220B0ED2B27B6883F860
:100B38003C207B68D3E912014FF000024FF000031C
:100B48000A000023D2B27B6883F83B207B68D3E994
:100B580012014FF000024FF000030A0A0023D2B23C
:100B68007B6883F83A207B68D3E912014FF00002D2
:100B78004FF000030A0C0023D2B27B6883F83920B7
:100B88007B68D3E912014FF000024FF000030A0E10
:100B98000023D2B27B6883F838207B6819467868CE
:100BA800FFF7CEFC0023FB60FB68032B72D87B6841
:100BB8001A6DFB68C3F10303DB0022FA03F13A68FC
:100BC800FB681344CAB21A707B685A6DFB68C3F19C
:100BD8000303DB0022FA03F1FB6804333A68134489
:100BE800CAB21A707B689A6DFB68C3F10303DB0015
:100BF80022FA03F1FB6808333A681344CAB21A7040
:100C08007B68DA6DFB68C3F10303DB0022FA03F1AA
:100C1800FB680C333A681344CAB21A707B681A6EC0
:100C2800FB68C3F10303DB0022FA03F1FB6810330E
:100C38003A681344CAB21A707B685A6EFB68C3F1EB
:100C48000303DB0022FA03F1FB6814333A68134408
:100C5800CAB21A707B689A6EFB68C3F10303DB00A3
:100C680022FA03F1FB6818333A681344CAB21A70BF
:100C78007B68DA6EFB68C3F10303DB0022FA03F139
:100C8800FB681C333A681344CAB21A70FB68013314
:100C9800FB6089E700BF1037BD46BDE8B0830000A0
:100CA80080B483B000AF094B7B607B683B60084A27
:100CB8007B6893603B68186880F3088859688847A0
:100CC80000BF0C37BD465DF8047B704700C00008C4
:100CD80000ED00E080B58CB002AF174B7B627B6AF9
:100CE80080333B623B6A0433FB61FB690433BB61BD
:100CF800BB6980337B6100233B618023FB603B6AD7
:100D08001B687B607B69BB603B1D0093BB68FA680E
:100D1800796A386900F012F80346002B0CBF0123EA
:100D28000023DBB2002B00D0FEE7FFF7B9FF00235A
:100D380018462837BD4680BDF8BE000880B59AB071
:100D480002AFF860B9607A603B6007F1380207F1DA
:100D58003C01174B01937B680093BB681548FFF76C
:100D680067FB20237B61BB6E196807F1140307F149
:100D78001802386800F020F80023FB65FB6D1F2B74
:100D880011DC07F11802FB6D13441A7807F13C01D6
:100D9800FB6D0B441B789A4201D0002304E0FB6DE5
:100DA8000133FB65EAE7012318466037BD4680BD7D
:100DB800000000242800002480B5A0B000AFF8602F
:100DC800B9607A603B6000233B654FF400724FF0D6
:100DD8000003C7E9162307F110031846FFF7BAFD09
:100DE800BA6807F11003F9681846FFF7EFFD07F135
:100DF800100379681846FFF720FE3B6820221A6026
:100E0800012318468037BD4680BD80B400AFFEE799
:100E180080B400AFFEE780B400AFFEE780B400AF57
:100E2800FEE780B400AFFEE780B400AF00BFBD4668
:100E38005DF8047B704780B400AF00BFBD465DF825
:100E4800047B704780B400AF00BFBD465DF8047BEB
:100E5800704780B500AF00F0B5F800BF80BD000056
:100E680080B400AF374BD3F88830364A43F4700368
:100E7800C2F88830344B1B6803F00F03062B07D8E1
:100E8800314B1B6823F00F032F4A43F0070313600D
:100E98002E4B1B682D4A43F0010313602B4B002295
:100EA8001A612A4B1A682949294B13400B60264BB3
:100EB8001B6803F00803002B07D0234B1B6823F0A3
:100EC8000F03214A43F007031360204B00229A6165
:100ED8001E4B0022DA611D4B00221A621B4B1D4A71
:100EE8009A621A4B1C4ADA62184B1C4A1A63174B4F
:100EF80000225A63154B194A9A63144B0022DA638D
:100F0800124B164A1A64114B00225A640F4B1B6885
:100F18000E4A23F4802313600C4B00221A66104BF0
:100F28001A68104B1340B3F1005F02D20E4B012236
:100F38001A600E4B43F2D2021A6000BFBD465DF83C
:100F4800047B704700ED00E0002000520044025886
:100F58007FEDF6EA000202020000FF0180020101B3
:100F68000010005C0000FFFF0881005100400052A3
:100F7800DFF834D0FFF774FF0C480D490D4A002301
:100F880002E0D458C4500433C4188C42F9D30A4A36
:100F98000A4C002301E013600432A242FBD3FFF79E
:100FA800BBF9FFF797FE70470000082400000024F3
:100FB8000C0000241C1100080C0000243000002440
:100FC800FEE7000080B400AF064B1B781A46064BBC
:100FD8001B681344044A136000BFBD465DF8047BD8
:100FE800704700BF080000242C000024F8B500BF9B
:100FF800F8BC08BC9E467047F8B500BFF8BC08BCF2
:041008009E46704749
:10100C00982F8A4291443771CFFBC0B5A5DBB5E967
:10101C005BC25639F111F159A4823F92D55E1CABDB
:10102C0098AA07D8015B8312BE853124C37D0C5569
:10103C00745DBE72FEB1DE80A706DC9B74F19BC1B1
:10104C00C1699BE48647BEEFC69DC10FCCA10C24A1
:10105C006F2CE92DAA84744ADCA9B05CDA88F97685
:10106C0052513E986DC631A8C82703B0C77F59BFEF
:10107C00F30BE0C64791A7D55163CA06672929141B
:10108C00850AB72738211B2EFC6D2C4D130D3853B8
:10109C0054730A65BB0A6A762EC9C281852C72927A
:1010AC00A1E8BFA24B661AA8708B4BC2A3516CC7A8
:1010BC0019E892D1240699D685350EF470A06A10E1
:1010CC0016C1A419086C371E4C774827B5BCB03430
:1010DC00B30C1C394AAAD84E4FCA9C5BF36F2E68CE
:1010EC00EE828F746F63A5781478C8840802C78C5D
:1010FC00FAFFBE90EB6C50A4F7A3F9BEF27871C660
:08110C00010300082905000899
:08111400D902000839050008AA
:0C111C000F3800000B0000000100000074
:0400000508000F7967
:00000001FF
